:020000040000FA
:100000000C9435000C945D000C945D000C945D0024
:100010000C945D000C945D000C945D000C945D00EC
:100020000C945D000C945D000C945D000C945D00DC
:100030000C945D000C945D000C945D000C945D00CC
:100040000C94D0020C945D000C9440030C941A03A1
:100050000C945D000C945D000C945D000C945D00AC
:100060000C945D000C945D00910411241FBECFEF31
:10007000D8E0DEBFCDBF11E0A0E0B1E0E6E8FEE0F1
:1000800002C005900D92A436B107D9F722E0A4E68C
:10009000B1E001C01D92AA30B207E1F710E0C5E35C
:1000A000D0E004C02197FE010E943B07C433D10772
:1000B000C9F70E9472030C9441070C9400008E5003
:1000C000806480937C0080917A00806480937A00C1
:1000D00080917A0086FDFCCF809178009091790024
:1000E00008953FB7F8948091690190916A01A091B9
:1000F0006B01B0916C0126B5A89B05C02F3F19F08C
:100100000196A11DB11D3FBFBA2FA92F982F882797
:10011000BC01CD01620F711D811D911D42E0660F72
:10012000771F881F991F4A95D1F70895AF92BF9204
:10013000CF92DF92EF92FF920F931F93CF93DF93B3
:100140006C017B018B01040F151FEB015E01AE18E2
:10015000BF08C017D10759F06991D601ED91FC9104
:100160000190F081E02DC6010995892B79F7C50131
:10017000DF91CF911F910F91FF90EF90DF90CF9083
:10018000BF90AF900895FC01538D448D252F30E032
:10019000842F90E0821B930B541710F0CF96089594
:1001A00001970895FC01918D828D981761F0A28DC1
:1001B000AE0FBF2FB11D5D968C91928D9F5F9F7387
:1001C000928F90E008958FEF9FEF0895FC01918D3D
:1001D000828D981731F0828DE80FF11D858D90E0AA
:1001E00008958FEF9FEF0895FC01918D228D892F47
:1001F00090E0805C9F4F821B91098F73992708952F
:100200008DE691E00E94F40021E0892B09F420E0C2
:10021000822F089580E090E0892B29F00E94000150
:1002200081110C9400000895FC01A48DA80FB92F32
:10023000B11DA35ABF4F2C91848D90E001968F730E
:100240009927848FA689B7892C93A089B1898C912D
:10025000837080648C93938D848D981306C002887C
:10026000F389E02D80818F7D80830895EF92FF9246
:100270000F931F93CF93DF93EC0181E0888F9B8DC9
:100280008C8D98131AC0E889F989808185FF15C083
:100290009FB7F894EE89FF896083E889F9898081A6
:1002A0008370806480839FBF81E090E0DF91CF9175
:1002B0001F910F91FF90EF900895F62E0B8D10E097
:1002C0000F5F1F4F0F731127E02E8C8D8E110CC006
:1002D0000FB607FCFACFE889F989808185FFF5CF51
:1002E000CE010E941401F1CFEB8DEC0FFD2FF11D1B
:1002F000E35AFF4FF0829FB7F8940B8FEA89FB898E
:1003000080818062CFCFCF93DF93EC01888D8823EB
:10031000B9F0AA89BB89E889F9898C9185FD03C068
:10032000808186FD0DC00FB607FCF7CF8C9185FF4D
:10033000F2CF808185FFEDCFCE010E941401E9CF7D
:10034000DF91CF910895FC0101900020E9F73197EA
:10035000AF01481B590BBC018DE691E00C9496004F
:100360008F929F92AF92BF920F931F93CF93DF9381
:10037000CDB7DEB7A1970FB6F894DEBF0FBECDBFE5
:1003800019A2423008F44AE08E010F5D1F4F842EFF
:10039000912CB12CA12CA50194010E94DD04E62F23
:1003A000B901CA01EA30F4F4E05DD801EE938D01A1
:1003B000232B242B252B79F790E080E0109719F060
:1003C000CD010E94A301A1960FB6F894DEBF0FBE27
:1003D000CDBFDF91CF911F910F91BF90AF909F90B4
:1003E0008F900895E95CE1CF4F925F926F927F9278
:1003F0008F929F92AF92BF92CF92DF92EF92FF9235
:100400000F931F93CF936B017C01742EAC019B0162
:100410000E943607882399F082E191E0CF911F91E5
:100420000F91FF90EF90DF90CF90BF90AF909F9093
:100430008F907F906F905F904F900C94A301460136
:100440005701E894B7F82FEF3FEF4FE75FE7C5019B
:10045000B4010E94360781110DC02FEF3FEF4FE727
:100460005FE7C501B4010E946C0518161CF486E113
:1004700091E0D4CF2FEF3FEF4FE75FE4C701B60124
:100480000E94C40618161CF48AE191E0C7CF2FEF32
:100490003FEF4FE75FECC701B6010E946C0587FD97
:1004A000F3CF20E030E0A901C701B6010E946C053E
:1004B00010E000E087FF0AC06DE28DE691E00E9447
:1004C00036018C01F7FAF094F7F8F094C0E060E0A0
:1004D00070E080E09FE37C1641F020E030E040E2F5
:1004E00051E40E947105CF5FF6CFA70196010E94EB
:1004F00000052B013C010E94E3054B015C014AE031
:100500000E94B0017C01E00EF11ECC23C1F1C501B7
:10051000B4010E9412069B01AC01C301B2010E940A
:10052000FF044B015C016EE28DE691E00E94360112
:10053000E80EF91EC15018F120E030E040E251E42D
:10054000C501B4010E94C9062B013C010E94E305CC
:100550004B01B12CA12C4AE0C501B4010E94B001AD
:10056000E80EF91EC501B4010E9412069B01AC0100
:10057000C301B2010E94FF044B015C01DBCFC70144
:10058000CF911F910F91FF90EF90DF90CF90BF9090
:10059000AF909F908F907F906F905F904F90089555
:1005A0001F920F920FB60F9211242F933F938F93A8
:1005B0009F93AF93BF938091650190916601A09145
:1005C0006701B09168013091640123E0230F2D375A
:1005D00058F50196A11DB11D20936401809365011A
:1005E00090936601A0936701B093680180916901BF
:1005F00090916A01A0916B01B0916C010196A11DCF
:10060000B11D8093690190936A01A0936B01B0932F
:100610006C01BF91AF919F918F913F912F910F905E
:100620000FBE0F901F90189526E8230F0296A11D6C
:10063000B11DD2CF1F920F920FB60F9211242F939C
:100640003F934F935F936F937F938F939F93AF935A
:10065000BF93EF93FF938DE691E00E941401FF9109
:10066000EF91BF91AF919F918F917F916F915F912A
:100670004F913F912F910F900FBE0F901F901895A3
:100680001F920F920FB60F9211242F938F939F9367
:10069000EF93FF93E0917D01F0917E018081E091E5
:1006A0008301F091840182FD1BC0908180918601BD
:1006B0008F5F8F7320918701821741F0E09186014F
:1006C000F0E0E359FE4F958F80938601FF91EF9103
:1006D0009F918F912F910F900FBE0F901F901895A3
:1006E0008081F4CF789484B5826084BD84B58160C4
:1006F00084BD85B5826085BD85B5816085BD8091ED
:100700006E00816080936E00109281008091810064
:10071000826080938100809181008160809381005C
:10072000809180008160809380008091B10084601E
:100730008093B1008091B00081608093B00080917F
:100740007A00846080937A0080917A00826080933E
:100750007A0080917A00816080937A0080917A009B
:10076000806880937A001092C100E0917D01F09141
:100770007E0182E08083E0917901F0917A0110821C
:10078000E0917B01F0917C018FEC808310928501D8
:10079000E0918101F091820186E08083E0917F0108
:1007A000F0918001808180618083E0917F01F091F0
:1007B0008001808188608083E0917F01F0918001D9
:1007C000808180688083E0917F01F0918001808149
:1007D0008F7D808388248A9463E0962EA12CB12C8F
:1007E00070E0272E70E0372E8EE00E945F007C01C3
:1007F0008FE00E945F008C0180E10E945F00EC01AD
:100800008EE191E00E94A301B701FF0C880B990BC8
:1008100023E0660F771F881F991F2A95D1F7A5013E
:1008200094010E94BE04CA01B90164507109810992
:1008300091090E94140642E00E94F40184E391E0D1
:100840000E94A301012E000C220B330BC901B80139
:1008500033E0660F771F881F991F3A95D1F7A501DE
:1008600094010E94BE04CA01B90164507109810952
:1008700091090E94140642E00E94F4018AE491E08A
:100880000E94A301BE01DD0F880B990B43E0660FA8
:10089000771F881F991F4A95D1F7A50194010E94DF
:1008A000BE04CA01B90164507109810991090E940D
:1008B000140642E00E94F40181E691E00E94A30147
:1008C0000E9471006B017C0154EF452E5524539416
:1008D000612C712C0E9471006C197D098E099F0991
:1008E000683E734081059105A8F321E0421A510842
:1008F0006108710888EEC80E83E0D81EE11CF11C67
:10090000411451046104710429F72114310409F4DC
:100910006BCF0E940001882309F466CF0E9400007B
:1009200063CFEDE6F1E01382128288EE93E0A0E05F
:10093000B0E084839583A683B78384E091E09183BC
:10094000808385EC90E09587848784EC90E097879E
:10095000868780EC90E0918B808B81EC90E0938B8C
:10096000828B82EC90E0958B848B86EC90E0978B69
:10097000868B118E128E138E148E0895052E97FB82
:100980001EF400940E94D50457FD07D00E94DD0498
:1009900007FC03D04EF40C94D50450954095309547
:1009A00021953F4F4F4F5F4F0895909580957095DB
:1009B00061957F4F8F4F9F4F0895A1E21A2EAA1B7A
:1009C000BB1BFD010DC0AA1FBB1FEE1FFF1FA217FF
:1009D000B307E407F50720F0A21BB30BE40BF50BFC
:1009E000661F771F881F991F1A9469F76095709585
:1009F000809590959B01AC01BD01CF0108955058A1
:100A0000BB27AA270E9417050C948A060E947C0621
:100A100038F00E94830620F039F49F3F19F426F441
:100A20000C9479060EF4E095E7FB0C947306E92F1D
:100A30000E949B0658F3BA1762077307840795074D
:100A400020F079F4A6F50C94BD060EF4E0950B2E7B
:100A5000BA2FA02D0B01B90190010C01CA01A00110
:100A60001124FF27591B99F0593F50F4503E68F16B
:100A70001A16F040A22F232F342F4427585FF3CFAC
:100A8000469537952795A795F0405395C9F77EF47D
:100A90001F16BA0B620B730B840BBAF09150A1F0C6
:100AA000FF0FBB1F661F771F881FC2F70EC0BA0F4C
:100AB000621F731F841F48F4879577956795B795D4
:100AC000F7959E3F08F0B0CF9395880F08F09927CF
:100AD000EE0F9795879508950E944F0608F481E0E0
:100AE00008950E9485050C948A060E94830658F09A
:100AF0000E947C0640F029F45F3F29F00C947306B5
:100B000051110C94BE060C9479060E949B0668F362
:100B10009923B1F3552391F3951B550BBB27AA27B6
:100B200062177307840738F09F5F5F4F220F331FF0
:100B3000441FAA1FA9F335D00E2E3AF0E0E832D0B8
:100B400091505040E695001CCAF72BD0FE2F29D0BB
:100B5000660F771F881FBB1F261737074807AB078D
:100B6000B0E809F0BB0B802DBF01FF2793585F4F02
:100B70003AF09E3F510578F00C9473060C94BE0633
:100B80005F3FE4F3983ED4F3869577956795B795E4
:100B9000F7959F5FC9F7880F911D9695879597F9EF
:100BA0000895E1E0660F771F881FBB1F6217730768
:100BB0008407BA0720F0621B730B840BBA0BEE1F7D
:100BC00088F7E09508950E94A30688F09F5798F053
:100BD000B92F9927B751B0F0E1F0660F771F881F42
:100BE000991F1AF0BA95C9F714C0B13091F00E945C
:100BF000BD06B1E008950C94BD06672F782F8827B5
:100C0000B85F39F0B93FCCF3869577956795B39582
:100C1000D9F73EF490958095709561957F4F8F4FF1
:100C20009F4F0895E89409C097FB3EF490958095F6
:100C3000709561957F4F8F4F9F4F9923A9F0F92FA2
:100C400096E9BB279395F695879577956795B79520
:100C5000F111F8CFFAF4BB0F11F460FF1BC06F5F06
:100C60007F4F8F4F9F4F16C0882311F096E911C018
:100C7000772321F09EE8872F762F05C0662371F039
:100C800096E8862F70E060E02AF09A95660F771F4D
:100C9000881FDAF7880F9695879597F90895990F29
:100CA0000008550FAA0BE0E8FEEF16161706E80736
:100CB000F907C0F012161306E407F50798F0621B57
:100CC000730B840B950B39F40A2661F0232B242B2C
:100CD000252B21F408950A2609F4A140A6958FEF4B
:100CE000811D811D089597F99F6780E870E060E09D
:100CF00008959FEF80EC089500240A9416161706B5
:100D000018060906089500240A94121613061406FC
:100D100005060895092E0394000C11F4882352F05F
:100D2000BB0F40F4BF2B11F460FF04C06F5F7F4F17
:100D30008F4F9F4F089557FD9058440F551F59F0FE
:100D40005F3F71F04795880F97FB991F61F09F3FB8
:100D500079F087950895121613061406551FF2CFE1
:100D60004695F1DF08C0161617061806991FF1CF31
:100D700086957105610508940895E894BB27662758
:100D80007727CB0197F908950E944F0608F48FEF5B
:100D900008950E94DC060C948A060E947C0638F0B6
:100DA0000E94830620F0952311F00C9473060C9496
:100DB000790611240C94BE060E949B0670F3959F41
:100DC000C1F3950F50E0551F629FF001729FBB2742
:100DD000F00DB11D639FAA27F00DB11DAA1F649FDE
:100DE0006627B00DA11D661F829F2227B00DA11D91
:100DF000621F739FB00DA11D621F839FA00D611D17
:100E0000221F749F3327A00D611D231F849F600D37
:100E1000211D822F762F6A2F11249F5750409AF060
:100E2000F1F088234AF0EE0FFF1FBB1F661F771FEC
:100E3000881F91505040A9F79E3F510580F00C94B7
:100E400073060C94BE065F3FE4F3983ED4F3869598
:100E500077956795B795F795E7959F5FC1F7FE2B57
:100E6000880F911D9695879597F908950E944F06D2
:100E7000880B990B0895EE0FFF1F0590F491E02D5C
:100E80000994F894FFCF0000000036019600C300DB
:100E90008301F400D200E6006E616E00696E6600A8
:100EA0006F766600446973706C6163656D656E741E
:100EB000205820617869733A2000446973706C612E
:100EC00063656D656E74205920617869733A2000FE
:100ED000446973706C6163656D656E74205A20613E
:0A0EE000786973203A20000D0A0023
:107E0000112484B714BE81FFF0D085E080938100F7
:107E100082E08093C00088E18093C10086E0809377
:107E2000C20080E18093C4008EE0C9D0259A86E02C
:107E300020E33CEF91E0309385002093840096BBD3
:107E4000B09BFECF1D9AA8958150A9F7CC24DD24C4
:107E500088248394B5E0AB2EA1E19A2EF3E0BF2EE7
:107E6000A2D0813461F49FD0082FAFD0023811F036
:107E7000013811F484E001C083E08DD089C08234E0
:107E800011F484E103C0853419F485E0A6D080C0E4
:107E9000853579F488D0E82EFF2485D0082F10E0AE
:107EA000102F00270E291F29000F111F8ED06801E7
:107EB0006FC0863521F484E090D080E0DECF843638
:107EC00009F040C070D06FD0082F6DD080E0C81688
:107ED00080E7D80618F4F601B7BEE895C0E0D1E017
:107EE00062D089930C17E1F7F0E0CF16F0E7DF06D8
:107EF00018F0F601B7BEE89568D007B600FCFDCFD4
:107F0000A601A0E0B1E02C9130E011968C91119780
:107F100090E0982F8827822B932B1296FA010C0160
:107F200087BEE89511244E5F5F4FF1E0A038BF0790
:107F300051F7F601A7BEE89507B600FCFDCF97BE46
:107F4000E89526C08437B1F42ED02DD0F82E2BD052
:107F50003CD0F601EF2C8F010F5F1F4F84911BD097
:107F6000EA94F801C1F70894C11CD11CFA94CF0C13
:107F7000D11C0EC0853739F428D08EE10CD085E9AC
:107F80000AD08FE07ACF813511F488E018D01DD067
:107F900080E101D065CF982F8091C00085FFFCCF94
:107FA0009093C60008958091C00087FFFCCF809118
:107FB000C00084FD01C0A8958091C6000895E0E648
:107FC000F0E098E1908380830895EDDF803219F02E
:107FD00088E0F5DFFFCF84E1DECF1F93182FE3DFCA
:107FE0001150E9F7F2DF1F91089580E0E8DFEE27F6
:047FF000FF270994CA
:027FFE00040479
:00000001FF
