:100000000C9439010C944D010C944D010C944D014C
:100010000C944D010C944D010C944D010C944D0128
:100020000C944D010C944D010C944D010C944D0118
:100030000C944D010C944D010C944D010C944D0108
:100040000C944D010C944D010C944D010C944D01F8
:100050000C944D010C944D010C944D010C94FA013B
:100060000C944D010C944D010C944D010C944D01D8
:100070000C944D010C944D010C944D010C944D01C8
:100080000C944D010C944D010C944D010C944D01B8
:100090000C944D010C944D010C944D010C944D01A8
:1000A0000C944D010C944D010C944D010C944D0198
:1000B0000C944D010C944D010C944D010C944D0188
:1000C0000C944D010C944D010C944D010C944D0178
:1000D0000C944D010C944D010C944D010C944D0168
:1000E0000C944D010C94F4010C94CA010C9403037C
:1000F0000C9490030C9445030C94E6010C94D801E5
:100100000C947C030C944F030C94D4010C942103A5
:100110000C94C4010C94EA010C94F0010C94B50108
:100120000C94A3010C9417030C94DC010C94BD01F6
:100130000C94B9010C94FE020C9486030C94720387
:100140000C94C1010C949E010C943B030C940D0380
:100150000C9429030C945E030C94CE010C94E201E0
:100160000C9431030C9468030C94EB0200000A0B0E
:1001700002090C0D0E080703040100000000000036
:10018000000000000000000000000000000000006F
:10019000000000000000000012111000000000002C
:1001A000000000000000000000000000000000004F
:1001B000000000002200250028002B002E00310046
:1001C000340002010000050108010B0100002100BC
:1001D000240027002A002D00300033000101000018
:1001E000040107010A0105050505070508080808B7
:1001F000020202020A0A08080404040401010101BF
:1002000001010101030303030303030304070707B9
:100210000C0C0C0C0C0C0C0C02020202060606065E
:10022000060606060B0B0B0B0B0B0B0B010210202B
:10023000200808102040102040800201020108041C
:1002400002010102040810204080804020100804B0
:100250000201800402018040201008040201080409
:10026000020101020408102040800102040810204D
:10027000408011241FBECFEFD1E2DEBFCDBF00E032
:100280000CBF22E0A0E0B2E001C01D92A930B2078D
:10029000E1F70E9444020C949D030C94000090E04E
:1002A000FC01E45DFD4F24918A519E4FFC01849135
:1002B000882399F090E0880F991FFC01E453FE4FCA
:1002C000A591B491FC01EE54FE4F859194918FB7A6
:1002D000F894EC91E22BEC938FBF0895282F30E037
:1002E000F901E459FE4F9491F901E45DFD4F449109
:1002F0002A513E4FF9012491222309F435C0992354
:1003000011F191509231F8F4E92FF0E08827E45789
:10031000FE4F8F4F0C949503BD01C1019E01B501A5
:10032000B901A301C401CA01CE01D401D801DC0185
:10033000E201E601A301EA01F001F40180918000ED
:100340008F7780938000E22FF0E0EE0FFF1FEE54D6
:10035000FE4FA591B4918FB7F894EC91611148C00C
:1003600040954E234C938FBF0895809180008F7DE0
:10037000E8CF80918000877FE4CF84B58F7784BDFC
:10038000E2CF84B58F7DFBCF8091B0008F778093D3
:10039000B000D9CF8091B0008F7DF9CF80919000CF
:1003A0008F7780939000CFCF809190008F7DF9CF91
:1003B00080919000877FF5CF8091A0008F77809308
:1003C000A000C1CF8091A0008F7DF9CF8091A000C7
:1003D000877FF5CF809120018F7780932001B3CF65
:1003E000809120018F7DF9CF80912001877FF5CF0B
:1003F0004E2BB8CF1F920F920FB60F9211242F934E
:100400003F938F939F93AF93BF93809105029091F9
:100410000602A0910702B09108023091040223E085
:10042000230F2D3758F50196A11DB11D209304020D
:100430008093050290930602A0930702B0930802EE
:100440008091000290910102A0910202B0910302FA
:100450000196A11DB11D8093000290930102A0930B
:100460000202B0930302BF91AF919F918F913F9190
:100470002F910F900FBE0F901F90189526E8230F15
:100480000296A11DB11DD2CF789484B5826084BD3F
:1004900084B5816084BD85B5826085BD85B5816088
:1004A00085BD80916E00816080936E001092810006
:1004B00080918100826080938100809181008160C1
:1004C0008093810080918000816080938000809182
:1004D000B10084608093B1008091B000816080930E
:1004E000B000809191008260809391008091910092
:1004F0008160809391008091900081608093900052
:100500008091A10082608093A1008091A100816010
:100510008093A1008091A00081608093A0008091D1
:10052000210182608093210180912101816080936B
:1005300021018091200181608093200180917A00C7
:10054000846080937A0080917A00826080937A0040
:1005500080917A00816080937A0080917A0080682F
:1005600080937A001092C1008AE00E944F018BE0D4
:100570000E944F018CE00E944F0186E7E82E81E047
:10058000F82EC8ECD0E018EC90E0C92E90E0D92EFF
:100590008AE00E944F01F7018491EFEFE80FE2310A
:1005A00008F0BEC0F0E08827E752FD4F8F4F0C9453
:1005B0009503EB02FE0203030D03170390032103CF
:1005C000290331033B0345034F035E036803900394
:1005D00072037C03860384B5806884BD17BD61E027
:1005E0008BE00E946E0160E08CE00E946E01C114FD
:1005F000D10409F4CDCF0E940000CACF84B5806237
:1006000084BD18BDECCF809180008068809380000D
:10061000D0938900C0938800E2CF809180008062EF
:1006200080938000D0938B00C0938A00D8CF8091B4
:100630008000886080938000D0938D00C0938C00F0
:10064000CECF8091B00080688093B0001093B3004B
:10065000C6CF8091B00080628093B0001093B40048
:10066000BECF80919000806880939000D0939900D5
:10067000C0939800B4CF80919000806280939000E6
:10068000D0939B00C0939A00AACF8091900088607D
:1006900080939000D0939D00C0939C00A0CF809148
:1006A000A00080688093A0008091A0008F7B809341
:1006B000A000D093A900C093A80091CF8091A00082
:1006C00080628093A000D093AB00C093AA0087CF34
:1006D0008091A00088608093A000D093AD00C0936B
:1006E000AC007DCF80912001806880932001D09361
:1006F0002901C093280173CF8091200180628093EB
:100700002001D0932B01C0932A0169CF8091200151
:10071000886080932001D0932D01C0932C015FCF7E
:1007200061E08AE00E946E015ACFEE0FFF1F881F22
:0E0730008BBF0790F691E02D1994F894FFCF3F
:00000001FF
